:020000040800F2
:1000000000040020E1010008410E0008450E000830
:10001000990E0008450E00086D0E0008E301000867
:10002000E3010008E3010008E30100086D2F000868
:10003000E3010008E3010008E3010008E301000810
:10004000E3010008E3010008E3010008E301000800
:10005000E3010008E3010008CD310008F931000890
:1000600025320008513200087D320008E301000803
:10007000E3010008E3010008E3010008E3010008D0
:10008000E3010008E3010008E3010008E3010008C0
:10009000E3010008E3010008E3010008A9320008B9
:1000A000E3010008E3010008E3010008E3010008A0
:1000B000E92F0008E3010008E3010008E30100085C
:1000C000E3010008E3010008E3010008E301000880
:1000D000E3010008E3010008E3010008E301000870
:1000E00011330008E3010008E3010008E301000800
:1000F000E3010008E3010008E3010008E301000850
:10010000E3010008E3010008E3010008E30100083F
:10011000E3010008E3010008E3010008E30100082F
:10012000E3010008E3010008E3010008E30100081F
:10013000E3010008E3010008E3010008E30100080F
:10014000E3010008E3010008E3010008C1260008FC
:10015000E3010008E3010008E3010008E3010008EF
:10016000E3010008E3010008E3010008E3010008DF
:10017000E3010008E3010008E3010008E3010008CF
:10018000E3010008E3010008E3010008E3010008BF
:10019000E3010008E3010008E3010008E3010008AF
:1001A000E3010008E3010008E3010008E30100089F
:1001B000E3010008E3010008E3010008E30100088F
:1001C000E3010008E3010008E3010008E30100087F
:1001D000E3010008E3010008E3010008E30100086F
:1001E00002E000F000F8FEE772B6394880F30888B4
:1001F000384880F3098838484EF60851CEF200019D
:10020000086040F20000CCF200004EF63471CEF2ED
:1002100000010860BFF34F8FBFF36F8F40F2000003
:10022000C0F2F0004EF68851CEF200010860BFF334
:100230004F8FBFF36F8F4FF00000E1EE100A4EF6C4
:100240003C71CEF200010860062080F31488BFF3F1
:100250006F8F01F0FDFE02F01FFE4FF055301F4979
:100260001B4A91423CBF41F8040BFAE71C49194A6A
:1002700091423CBF41F8040BFAE71A491A4A1B4B5A
:100280009A423EBF51F8040B42F8040BF8E70020F5
:100290001749184A91423CBF41F8040BFAE701F0B4
:1002A000DBFE02F055FE144C144DAC4203DA54F858
:1002B000041B8847F9E700F03FF8114C114DAC42A0
:1002C00003DA54F8041B8847F9E701F0C3BE0000C5
:1002D000000400200024002000000008000000208E
:1002E00000040020203700080024002028240020DB
:1002F0002824002018300020E0010008E001000858
:10030000E0010008E00100082DE9F04F2DED108A12
:10031000C1F80CD0C3689D46BDEC108ABDE8F08FD3
:10032000002383F311882846A047002001F016FB24
:1003300001F0C6FA00DFFEE71A4B7D2270B50024FB
:100340001A700F225C709C70DC701C715C719C7167
:10035000DC711C725C729A72DC7201F04BFE064614
:1003600001F070FE054650B90F4B9E4217D0013385
:100370009E4241F2883412BF054600240125002028
:1003800001F042FE0DB100F0B5F800F02DFD00F0D7
:10039000F5FB204600F00CF900F0ACF8F9E7044654
:1003A000EDE700BF28240020010007B008B500F0E9
:1003B00087FBA0F120035842584108BD07B5054B03
:1003C00002211B88ADF8043001A800F0C7FB03B080
:1003D0005DF804FBF4330008064991F8243033B18A
:1003E00000230822086A81F8243000F0E9BB0120CC
:1003F000704700BF482400202DE9F84F234C94F8A3
:1004000024300546884617468BBB2E46DFF87C9085
:10041000002F38D094F824A0BAF1000F05D1202283
:10042000FF214846266200F0CDFCCAF10805BD4216
:1004300028BF3D465FFA85FBAD0041462A4604EBE6
:100440008A0000F095FC94F82430A7EB0B079B443E
:100450005FFA8BFBBBF1080F2E44A844FFB284F86F
:1004600024B0D5D1FFF7B8FF0028D1D108E0266A23
:1004700006EB8306B042C9D0FFF7AEFF0028C4D117
:100480000020BDE8F88F0120BDE8F88F4824002047
:1004900010B5202383F311881248C3680BB101F013
:1004A000E3FA0023104A0F484FF47A7101F0A0FAE2
:1004B000002383F311880D4C236813B12368013B9B
:1004C0002360636813B16368013B6360084B1B786A
:1004D00033B9636823B9022000F036FC322363602D
:1004E00010BD00BF342400209104000878250020AE
:1004F0007024002010B5254B254953F8042F0132F4
:1005000000D110BD8B42F8D1224C234B22689A4275
:100510003AD9224B9B6803F1006303F580339A427A
:1005200032D2002000F044FB1D4B0220187000F076
:10053000F9FB1C4B1A6C00221A64196E1A66196EAC
:10054000596C5A64596E5A665A6E5A6942F0800262
:100550005A615A6922F080025A615A691A6942F056
:1005600000521A611A6922F000521A611B6972B6B0
:100570000D4A0E4B13601B682268202181F31188FD
:100580009D4683F30888104710BD00BFFCFF00089C
:100590001C00010804000108FFFF000828240020B7
:1005A000702400200038024008ED00E0000001083F
:1005B0002DE9F04F99B0B34C01902022FF2110A8F3
:1005C000A66800F0FFFBB04A1378A346A3B9AF4872
:1005D0000121C3601170202383F31188C3680BB11C
:1005E00001F042FA0023AA4AA8484FF47A7101F0B8
:1005F000FFF9002383F31188019B13B1A54B019AE6
:100600001A60A54AA349019F0292002313704B6010
:1006100099461C461D469846012000F083FB002F9A
:1006200000F012829B4B1B68002B40F00D8219B02A
:10063000BDE8F08F0220FFF7B9FE002840F0FB81F3
:10064000019BB9F1000F08BF1F46944B1B88ADF802
:100650002C3002210BA800F081FADDE74FF47A700C
:1006600000F02EFA031E0393EADB0220FFF79EFE42
:1006700082460028E4D0039B581E042800F2DD8146
:10068000DFE800F0030E1114170018A8052340F846
:10069000343D042100F062FA54464FF0000856E061
:1006A00004217848F6E704217D48F3E704217D48DA
:1006B000F0E71C24204600F07DFA04340B9004215E
:1006C0000BA800F04BFA2C2CF4D1E5E7002DB7D0A5
:1006D000002CB5D00220FFF769FE0546002800F087
:1006E000AF8101206C4C00F063FA0220207000F012
:1006F00019FB4FF000095FFA89FA504600F068FADA
:10070000074658B1504600F073FA09F10109002874
:10071000F1D12C46A9460027634B97E7012302201D
:10072000237000F0EDFA3E46DBF808309E4206D218
:10073000304600F03FFA0130EBD10436F4E7029B7B
:1007400000261E70534BA9465E602C46374600F0CB
:1007500041FB15B1002C18BF0027FFF72FFE5BE708
:10076000002D3FF46DAF002C3FF46AAF029B0220D6
:10077000187000F0D7FA322000F0A2F9B0F1000AA8
:10078000C0F25E811AF0030540F05A81DBF80820C0
:1007900006EB0A03934200F25381BAF5807F00F220
:1007A0004F8155450DDA4FF47A7000F089F90490C5
:1007B000049B002BC0F244813C4A049BAB5401359E
:1007C000EFE7C820FFF7F2FD0546002800F038816A
:1007D0001F2E11D8C6F12004544528BF544610AB33
:1007E00026F0030022463149184400F0C1FA22469F
:1007F000FF212E4800F0E6FA4FEAAA0A5FFA8AF2D1
:100800002A493046FFF7F8FD0446002800F01A8117
:1008100006EB8A0605469AE70220FFF7C7FD002887
:100820003FF40EAFFFF7D8FD00283FF409AF4FF0BB
:10083000000A5346DBF8082092451CD2BAF11F0F7C
:1008400012D8109A01320FD02AF0030218A90A44D4
:1008500052F8202C0B92184604220BA900F030FB12
:100860000AF1040A0346E5E75046039300F0A2F9B3
:10087000039B0B90EFE718A8042140F84C3D00F0D3
:100880006DF964E72824002074250020342400201A
:10089000910400087825002070240020F633000819
:1008A0002C24002030240020F83300087424002079
:1008B00018A8002340F8343D642100F02BF90028EB
:1008C0007FF4BEAE0220FFF771FD00283FF4B8AE02
:1008D0000B9800F09FF918AB43F8480D0421184617
:1008E000CDE718A8002340F8343D642100F012F948
:1008F00000287FF4A5AE0220FFF758FD00283FF442
:100900009FAE0B9800F094F918AB43F8440DE5E75F
:100910000220FFF74BFD00283FF492AE00F08EF965
:1009200018AB43F8400DD9E70220FFF73FFD002840
:100930003FF486AE0BA9142000F086F9824618A871
:10094000042140F83CAD00F009F951460BA896E7A8
:10095000322000F0B5F8B0F1000AFFF671AE1AF0DF
:10096000030F7FF46DAEDBF808200AEB0803934217
:100970003FF666AE0220FFF719FD00283FF460AE97
:100980002AF0030AC244D0453FF4E1AE404600F0ED
:1009900011F904210A900AA800F0E0F808F104080F
:1009A000F1E74FF47A70FFF701FD00283FF448AEFD
:1009B000FFF712FD00283FF4AFAE109B01330CD0BF
:1009C000082210A90020FFF717FD00283FF4A4AE6D
:1009D0002022FF2110A800F0F5F9FFF7EFFC3748BF
:1009E00000F0C2FF23E6002D3FF42AAE002C3FF4B6
:1009F00027AE18A8002340F8343D642100F08AF89F
:100A0000824600287FF41CAE0220FFF7CFFC0028AE
:100A10003FF416AE0390FFF7D1FC41F2883000F0AE
:100A2000A3FF0B9800F00AFA00F0D4F9039B574695
:100A30001C461D46F0E5054689E64FF00008FFE537
:100A40002546FDE52C4667E6002000F039F80490C5
:100A5000049B002BFFF6E3AD012000F051F9049B4D
:100A6000213B122B3FF6D8AD01A252F823F000BF74
:100A7000350600085D060008CD06000819060008C6
:100A80001906000819060008610700085109000846
:100A900019080008B1080008E30800081109000857
:100AA000190600082909000819060008A30900080A
:100AB0004F07000819060008E7090008A086010092
:100AC00037B5114B1A780132D2B20024012A0146FF
:100AD0008DF8074011D80D4803681D6A4FF47A73EA
:100AE0004B4301220DF10701A847012805D1084B0E
:100AF0009DF807001C7003B030BD4FF4FA7000F091
:100B000033FF4FF0FF30F6E7002400204826002096
:100B10008425002038B50E4B1A780132D2B2012A52
:100B200005460ED80B4803681C6A4FF47A734B4392
:100B300004222946A047042803D1074B002018703F
:100B400038BD4FF4FA7000F00FFF4FF0FF3038BDA2
:100B500000240020482600208425002030B4054CC5
:100B60002368DD69044B0A46AC460146204630BC8A
:100B7000604700BF48260020A086010070B501F044
:100B80003DF9094C094E20700025306823788342D6
:100B900008D901F02DF9336805440133B5F5803FDC
:100BA0003360F2D370BD00BF852500208025002072
:100BB00001F0D2B900F1006000F5803000687047A4
:100BC00000F10060920000F5803001F05DB9000096
:100BD000054B1A68054B1B789B1A834202D91044B7
:100BE00001F006B9002070478025002085250020EF
:100BF00038B5074D04462868204401F001F928B9AA
:100C000028682044BDE8384001F012B938BD00BF63
:100C10008025002010F0030308D1B0F5007F05D82F
:100C200000F10050A0F508400068704700207047B0
:100C3000014BC058704700BF107AFF1F014B186866
:100C4000704700BF002004E070B52A4B1C68C4F355
:100C50000B03240C63B140F21342934231D040F2B3
:100C6000194293422FD040F2214293422DD10323C7
:100C7000214A0C2505FB03235D6893F9082042F205
:100C800001039C4224D0B4F5805F23D041F20103DC
:100C90009C4221D041F203039C421FD041F2070342
:100CA0009C4208BF3122441E0C44013D0B46A34226
:100CB0001ED215F9016F581C96B1034600F8016C5D
:100CC000F5E70123D4E70223D2E73F220B4DD6E715
:100CD0003322E3E74122E1E75A22E4E75922E2E73F
:100CE0002C2584421D7001D9981C5A70401A70BD81
:100CF0001846FBE7002004E008340008FC33000835
:100D0000022804D1054B4FF000729A617047012808
:100D1000FCD14FF08042024BF7E700BF00040240D5
:100D200000000240022804D1054B4FF400729A6182
:100D300070470128FCD14FF48042024BF7E700BF17
:100D40000004024000000240022805D1064A53690F
:100D500083F40073536170470128FCD1034A53693F
:100D600083F48043F6E700BF000402400000024025
:100D700010B50023934203D0CC5CC4540133F9E78F
:100D800010BD000030B5441E14F9010F0B4660B1D0
:100D900093F90050854201F1010106D11AB993F986
:100DA0000020801A30BD013AEEE7002AF7D1104644
:100DB00030BD000002460346981A13F9011B0029B2
:100DC000FAD1704702440346934202D003F8011B54
:100DD000FAE77047024B1A78024B1A70704700BF4F
:100DE000842500200024002038B5104D104C2846E2
:100DF00000F002F92146284600F02AF924680D483F
:100E0000626DD2F8043843F00203C2F8043800F0EF
:100E1000ABFD0949204600F027FA626DD2F804388C
:100E200023F00203C2F8043838BD00BF4826002072
:100E3000D434000840420F00FC3400087047000022
:100E4000FEE7000000B59BB0EFF309816822684619
:100E5000FFF78EFFEFF30583034B9A6B9A6A9A6A4A
:100E60009A6A9A6A9B6AFEE700ED00E000B59BB0C3
:100E7000EFF3098168226846FFF77AFFEFF30583F5
:100E8000044B9A6B9A6A9A6A9A6A9A6A9A6A9B6AF5
:100E9000FEE700BF00ED00E000B59BB0EFF3098175
:100EA00068226846FFF764FFEFF30583034B5A6B34
:100EB0009A6A9A6A9A6A9A6A9B6AFEE700ED00E06B
:100EC00030B5084D0A4491420BD011F8013B09247A
:100ED0005840013CF7D040F300032B4083EA500018
:100EE000F7E730BD2083B8ED002304491A465A5075
:100EF000C8180833802B4260F9D17047882500203C
:100F0000026843681143016003B11847704700004D
:100F100013B5446BD4F894341A681178042915D1A8
:100F2000217C022912D11979128901238B401342A5
:100F30000CD101A904F14C0001F028FED4F894442E
:100F4000019B21790246206800F0DAF902B010BD59
:100F5000143001F0ABBD00004FF0FF33143001F04E
:100F6000A5BD00004C3001F07DBE00004FF0FF3306
:100F70004C3001F077BE0000143001F079BD000064
:100F80004FF0FF31143001F073BD00004C3001F020
:100F900049BE00004FF0FF324C3001F043BE00006C
:100FA000D0F8942438B5136819780429054601D07F
:100FB000012038BD017C0229FAD112795C89012017
:100FC00090400440F4D105F1140001F00BFD0246FD
:100FD0000028EDD0D5F894544FF4807328686979CF
:100FE00000F07CF9204638BD406BFFF7D9BF000008
:100FF00000207047704700007FB5124B036000234C
:1010000043608360C360012502260F4B05740446CC
:101010000290019300F18402294600964FF48073F8
:10102000143001F0BBFC094B0193029400964FF47D
:10103000807304F52372294604F14C0001F082FD0F
:1010400004B070BD58340008E90F0008110F000803
:101050000B68202282F311880A7903EB82029061E7
:101060004A79093243F822008A7912B103EB8203EC
:10107000986102230374C0F89414002383F3118849
:101080007047000038B5037F044613B190F8543020
:10109000ABB9201D01250221FFF732FF04F1140036
:1010A00025776FF0010100F087FC84F8545004F1BB
:1010B0004C006FF00101BDE8384000F07DBC38BD48
:1010C00010B5012104460430FFF71AFF00232377EF
:1010D00084F8543010BD000038B5044600251430A3
:1010E00001F074FC04F14C00257701F043FD201D54
:1010F00084F854500121FFF703FF2046BDE8384033
:10110000FFF74EBF90F8443003F06003202B19D155
:1011100090F84520212A0AD0222A4FF000030ED051
:10112000202A0FD1084A82630722C26304E0064BDB
:1011300083630723C3630023036401207047836331
:10114000C363F9E70020704701240020D0F89434ED
:1011500037B51A681178042904461AD1017C02298E
:1011600017D11979128901238B40134211D100F153
:101170004C05284601F0BEFD58B101A9284601F0F2
:1011800005FDD4F89444019B21790246206800F0C3
:10119000B7F803B030BD000000EB8103F7B59C69E0
:1011A00005460E46F4B1202383F3118805EB86072C
:1011B000201D0821FFF7A4FEFB685B691B684C3407
:1011C00013B1204601F0F0FC01A9204601F0DEFC3D
:1011D000024648B1019B3146284600F091F80023B1
:1011E00083F3118803B0F0BDFB685A691268002AC6
:1011F000F5D01B8A013B1340F1D105F14402EAE727
:10120000093138B550F82140DCB1202383F311882F
:10121000D4F894241368527903EB8203DB689B694A
:101220005D6845B104216018FFF76AFE294604F1A4
:10123000140001F0E1FB2046FFF7B2FE002383F328
:10124000118838BD7047000000F08CBF0123037087
:1012500000234360C36183620362C362436203632A
:10126000038143817047000038B50446202383F38F
:10127000118800254160C56005614561856100F008
:1012800081FF0223237085F3118838BD70B500EB10
:10129000810305465069DA600E46144618B11022E3
:1012A0000021FFF78FFDA06918B110220021FFF780
:1012B00089FD31462846BDE8704001F02DB8000098
:1012C000028902F001020281428902F00102428198
:1012D000002202614261826101F0B2B8F0B400EB19
:1012E00081044789E4680125A4698D403D43458117
:1012F00023600023A2606360F0BC01F0CDB8000061
:10130000F0B400EB81040789E468012564698D402D
:101310003D43058123600023A2606360F0BC01F0BF
:1013200047B9000070B50223002504460370A0F8F9
:101330004C5080F84E5080F84F5005814581C56073
:1013400005614561856180F8345000F081FF636874
:101350001B6823B129462046BDE87040184770BD80
:10136000436802781B6880F85020052202700BB198
:101370000421184770470000436890F850201B680C
:1013800002700BB1052118477047000090F8343007
:1013900070B5044613B1002380F8343004F14402E0
:1013A000204601F06FF863689B6863BB94F8445073
:1013B00015F0600615D194F8453005F07F0545EA33
:1013C000032540F202339D4200F00E815BD8022DCE
:1013D00000F0DC803FD8002D00F08780012D00F068
:1013E000CF800021204601F0A5FA0021204601F01F
:1013F00097FA63681B6813B10621204698470623B5
:1014000084F8343070BD204698470028CED094F838
:101410004B2094F84A3043EA0223E26B934238BFF0
:10142000E36394F94430E56B002B4FF0200380F226
:10143000FD80002D00F0EC80092284F8342083F335
:1014400011880021E36BA26B2046FFF759FF0023B0
:1014500083F3118870BDB5F5817F00F0B180B5F5DB
:10146000407F49D0B5F5807FBBD194F84630012B41
:10147000B7D1B4F84C3023F00203A4F84C30A66383
:10148000E6632664C3E740F201639D421ED8B5F5CA
:10149000C06F3BD2B5F5A06FA3D1B4F84430B3F51B
:1014A000A06F0ED194F8463084F84E30204600F0FC
:1014B00027FF63681B6813B1012120469847032367
:1014C00023700023A363E3632364A0E7B5F5106FE3
:1014D00032D040F602439D4252D0B5F5006F80D124
:1014E00004F14F03A363012324E004F14C03A3633D
:1014F0000223E36325648AE794F84630012B7FF4E6
:1015000070AFB4F84C3043F00203B6E794F84920CA
:10151000616894F848304D6894F8471043EA022314
:10152000204694F84620A84700283FF45AAF436865
:10153000A3630368E363A4E72378042B10D120237B
:1015400083F311882046FFF7BBFE86F3118863689A
:1015500084F84F601B68032121700BB12046984727
:1015600094F84630002BACD084F84F30042323701D
:1015700063681B68002BA4D0022120469847A0E78F
:10158000374BA3630223E36300239DE794F84810DD
:1015900011F0800F204601F00F010ED000F064FF23
:1015A000012806D002287FF41CAF2E4BA363E06312
:1015B00067E72D4BA363E56363E700F047FFEFE7C1
:1015C00094F84630002B7FF40CAF94F8483013F0B9
:1015D0000F013FF476AF1A06204602D501F0BEF99E
:1015E0006FE701F0B1F96CE794F84630002B7FF417
:1015F000F8AE94F8483013F00F013FF462AF1B06C9
:10160000204602D501F096F95BE701F089F958E729
:10161000142284F8342083F311882B462A46294665
:101620002046FFF75BFE85F3118870BD5DB1152282
:1016300084F8342083F311880021E36BA26B2046E9
:10164000FFF74CFE03E70B2284F8342083F3118864
:101650002B462A4629462046FFF752FEE3E700BF05
:1016600088340008803400088434000838B590F8C5
:1016700034300446152B29D8DFE803F03E2828280B
:1016800028283E28280B29392828282828282828CF
:101690003E3E90F84B1090F84A20C36B42EA01227C
:1016A0009A4214D9C268128AB3FBF2F502FB1535CF
:1016B0006DB9202383F311882B462A462946FFF76C
:1016C0001FFE85F311880A2384F8343038BD1423B3
:1016D00084F83430202383F3118800231A461946F6
:1016E0002046FFF7FBFD002383F3118838BD036C10
:1016F00003B198470023E7E7002101F01BF900211F
:10170000204601F00DF963681B6813B106212046DD
:1017100098470623D8E7000090F83420152A38B5FA
:10172000044622D80123934040F6416213421DD162
:1017300013F480150FD19B0217D50B2380F834309A
:10174000202383F311882B462A462946FFF7D8FD2C
:1017500085F3118838BDC3689B695B682BB9036C3E
:1017600003B19847002384F8343038BD002101F0DC
:10177000E1F80021204601F0D3F863681B6813B13B
:101780000621204698470623EDE70000024B002281
:101790001B605B609A60704708260020002303747A
:1017A0008268054B1B6899689142FBD25A680360B6
:1017B00042601060586070470826002008B520235A
:1017C00083F31188037C032B05D0042B0DD02BB998
:1017D00083F3118808BD436900221A604FF0FF337C
:1017E0004361FFF7DBFF0023F2E790E80C001A608B
:1017F00002685360F2E70000002303748268054B1F
:101800001B6899689142FBD85A6803604260106077
:101810005860704708260020054B1969087418683D
:1018200002681A605360186101230374FEF76CBDEF
:101830000826002030B54B1C87B005460A4C10D056
:1018400023690A4A01A800F0D3F82846FFF7E4FF0D
:10185000049B13B101A800F007F92369586907B088
:1018600030BDFFF7D9FFF8E708260020BD170008B4
:1018700038B50C4D41612B6981689A6891420446E4
:1018800003D8BDE83840FFF789BF1846FFF786FF49
:1018900001232C61014623742046BDE83840FEF741
:1018A00033BD00BF08260020044B1A681B699068EE
:1018B0009B68984294BF00200120704708260020B2
:1018C00010B5084C236820691A6822605460012210
:1018D00023611A74FFF790FF01462069BDE81040AC
:1018E000FEF712BD08260020826002220274002248
:1018F000427470478368A3F17C0243F80C2C0269A0
:1019000043F83C2C426943F8382C074A43F81C2C16
:10191000C26843F8102C022203F8082C002203F8B6
:10192000072CA3F1180070472103000810B52023ED
:1019300083F31188FFF7DEFF00210446FFF798FFCD
:10194000002383F31188204610BD0000024B1B6961
:1019500058610F20FFF760BF08260020202383F383
:101960001188FFF7F3BF000008B50146202383F379
:1019700011880820FFF75EFF002383F3118808BD5C
:1019800049B1064B42681B6918605A601360436096
:101990000420FFF74FBF4FF0FF30704708260020AC
:1019A0000368984206D01A68026050605961184670
:1019B000FFF7F4BE7047000038B504460D462068B6
:1019C000844200D138BD036823605C604561FFF745
:1019D000E5FEF4E7054B03F114025A619A614FF0FA
:1019E000FF32DA6100221A62704700BF0826002029
:1019F000F8B503614FF08043C2605C6A194B1A4628
:101A0000022952F8145F38BF0221954206461F464C
:101A10000AD1586198611C620560456081600819AF
:101A2000BDE8F84001F088B9186AAB68241A0C19AF
:101A300002D3E41A2D6804E09C4202D2204401F053
:101A400089F9AB689C42F4D86B68736035601E609E
:101A50006E60B460A9684FF0FF33091BA960FB6199
:101A6000F8BD00BF0826002010B41B4C234653F8D5
:101A7000141F814210D0416802680A6002685160F8
:101A80009A424FF00001C16003D0936881680B4413
:101A900093605DF8044B70470A68626100209A42C7
:101AA0005360C86003D15DF8044B01F04DB99368F1
:101AB0008868034493604FF08042206A526A121A89
:101AC0009342E6D9991A012998BF931C18445DF8EE
:101AD000044B01F03FB900BF0826002000207047EA
:101AE000FEE70000704700004FF0FF307047000035
:101AF000022906D0032906D00129064818BF002074
:101B0000704705487047032A9ABF044800EBC2009B
:101B100000207047583500080C35000808240020C4
:101B200070B59AB001AD064608462946144600F045
:101B300095F82846FFF73EF9C0B2431C5B0086E8E3
:101B40001800237003236370002302341946DAB2AD
:101B5000904204F1020401D81AB070BDEA5C04F8A6
:101B6000022C04F8011C0133F1E7000008B5202322
:101B700083F311880348FFF7E9FA002383F3118800
:101B800008BD00BF4826002010B50446052916D818
:101B9000DFE801F016150316161D202383F31188C4
:101BA0000E4A0121FFF772FB20460D4A0221FFF782
:101BB0006DFB0C48FFF790FA002383F3118810BDEA
:101BC000202383F311880748FFF75CFAF4E720230A
:101BD00083F311880348FFF773FAEDE78C340008AC
:101BE000B03400084826002038B50C4D0C4C0D4987
:101BF0002A4604F10800FFF793FF05F1CA0204F139
:101C000010000949FFF78CFF05F5CA7204F11800AE
:101C10000649BDE83840FFF783BF00BF102B002006
:101C200008240020DC340008E6340008F134000801
:101C300070B5044608460D46FFF7BCF8C6B220460C
:101C4000013403780BB9184670BD32462946FFF7B8
:101C500099F80028F3D1012070BD00002DE9F84F5C
:101C600005460C46FFF7A6F82B49C6B22846FFF7F3
:101C7000DFFF08B10236F6B228492846FFF7D8FF41
:101C800008B11036F6B2632E0DD8DFF88C80DFF87D
:101C90008C90234FDFF890A0DFF890B02E7846B9F3
:101CA0002670BDE8F88F29462046BDE8F84F01F0C0
:101CB00099BB252E2CD1072241462846FFF762F812
:101CC00058B9DBF800302360DBF8043063609BF820
:101CD0000830237207350934E0E7082249462846D0
:101CE000FFF750F8A0B90F4BA21C13F8011F090908
:101CF0005345C95D02F8021C197801F00F0102F189
:101D00000202C95D02F8031CEFD118340835C5E79B
:101D1000267001350134C1E778350008F134000838
:101D20008A3500080F7AFF1F1B7AFF1F80350008D5
:101D3000BFF34F8F024AD368DB03FCD4704700BF68
:101D4000003C024008B5094B1B7873B9FFF7F0FF60
:101D5000074B1A69002ABFBF064A5A6002F188324F
:101D60005A601A6822F480621A6008BD6E2D002045
:101D7000003C02402301674508B50B4B1B7893B923
:101D8000FFF7D6FF094B1A6942F000421A611A6840
:101D900042F480521A601A6822F480521A601A685B
:101DA00042F480621A6008BD6E2D0020003C0240A3
:101DB0000B2870B513D80B4A0B4C137863B90B4E34
:101DC0004FF0006144F8231056F8235001330C2BD8
:101DD0002944F7D10123137054F8200070BD00206E
:101DE00070BD00BFA02D0020702D00209C35000884
:101DF000014B53F8200070479C3500080C207047B9
:101E00000B2810B5044601D9002010BDFFF7D0FF04
:101E1000064B53F824301844C21A0BB9012010BDE8
:101E200012680132F0D1043BF6E700BF9C35000890
:101E30000B2810B5044621D8FFF77AFFFFF782FF81
:101E40000F4AF323D360C300DBB243F4007343F0C3
:101E500002031361136943F480331361FFF768FFD2
:101E6000FFF7A6FF074B53F8241000F0DDF8FFF74B
:101E700083FF2046BDE81040FFF7C2BF002010BD21
:101E8000003C02409C3500082DE9F84312F00103A4
:101E9000154640D18218B2F1016F3CD22C4B1B6821
:101EA00013F0010337D02B4CFFF74CFFF323E36013
:101EB000FFF73EFF40F20127032D01D9830713D01E
:101EC000244C0F46401A40F20118EB1B0B44012B27
:101ED00000EB0706236924D823F001032361FFF7F1
:101EE0004BFF0120BDE8F883236923F4407323618D
:101EF00023693B43236151F8046B0660BFF34F8FA6
:101F0000FFF716FF03689E4208D0236923F0010300
:101F10002361FFF731FF0020BDE8F883043D043062
:101F2000CAE723F440732361236943EA080323616A
:101F3000B94637F8023B3380BFF34F8FFFF7F8FE07
:101F40003688B9F80030B6B2B342BED0DDE700BF84
:101F500000380240003C0240084908B50B7828B11F
:101F600053B9FFF7EFFE01230B7008BD23B1BDE8A5
:101F700008400870FFF700BF08BD00BF6E2D0020AD
:101F800010B50244064B0439D2B2904200D110BDC4
:101F9000441C00B253F8200041F8040FE0B2F4E70B
:101FA00050280040104B30B51C6F240407D41C6F20
:101FB00044F400741C671C6F44F400441C670B4C11
:101FC000236843F4807323600244094B0439D2B27E
:101FD000904200D130BD441C00B251F8045F43F878
:101FE0002050E0B2F4E700BF00380240007000402B
:101FF0005028004007B5012201A90020FFF7C0FFCB
:10200000019803B05DF804FB13B50446FFF7F2FF37
:10201000A04206D002A9012241F8044D0020FFF79A
:10202000C1FF02B010BD000070470000034B1B68E9
:102030009B0042BF024B01221A7070477438024065
:10204000A12D0020014B1878704700BFA12D002062
:1020500070470000FEE70000084A094B09498B421F
:1020600004D3094A0021934205D3704752F8040F64
:1020700043F8040BF3E743F8041BF4E74437000884
:10208000183000201830002018300020836D30B543
:1020900000229D68446D11464FF0FF3004EB42135F
:1020A00001329542C3F80019C3F81019C3F80809A2
:1020B000C3F8001BC3F8101BC3F8080BEED24FF097
:1020C0000113C4F81C3830BD890141F020010161C1
:1020D00003699B06FCD4122000F0C4BE204B03EB26
:1020E00080022DE9F047D2F80CE05D6DDEF8142097
:1020F000461CD2F800C005EB063605EB40185168C7
:1021000061450BD3D5F83428012303FA00F022EA05
:102110000000C5F834081846BDE8F087BEF8104046
:10212000ACEB0103A34228BF2346D8F81849A4B258
:10213000B3EB840F10D894681F46A4F1040959F832
:1021400004AFC6F800A0042F01D9043FF7E71C44F0
:102150000B4494605360D2E70020BDE8F08700BFD5
:10216000A42D002010B5054C2046FFF76FF84FF066
:10217000A0436365024BA36510BD00BFA42D0020E2
:10218000F03500080378012B70B5054650D12A4B75
:10219000446D98421BD1294B5A6B42F080025A631E
:1021A0005A6D42F080025A655A6D5A6942F08002B7
:1021B0005A615A6922F080025A610E2143205B69FC
:1021C00000F0D6FB1E4BE3601E4BC4F80038002322
:1021D000C4F8003EC02323606E6D4FF40413A36364
:1021E0003369002BFCDA012333610C2000F03AFE46
:1021F0003369DB07FCD4122000F034FE3369002B76
:10220000FCDA0026A6602846FFF740FF6B68C4F89A
:102210001068DB68C4F81468C4F81C684BB90A4B32
:10222000A3614FF0FF336361A36843F00103A36030
:1022300070BD064BF4E700BFA42D0020003802401B
:102240004014004003002002003C30C0083C30C075
:10225000F8B5446D054600212046FFF735FFA96D0E
:1022600000234FF001128F68C4F834384FF0006635
:10227000C4F81C284FF0FF3004EB431201339F4297
:10228000C2F80069C2F8006BC2F80809C2F8080B6E
:10229000F2D20B686A6DEB656362102313611669F5
:1022A00016F01006FBD1122000F0DCFDD4F8003847
:1022B00023F4FE63C4F80038A36943F4402343F0D9
:1022C0001003A3610923C4F81038C4F814380A4B6A
:1022D000EB604FF0C043C4F8103B084BC4F8003B20
:1022E000C4F81069C4F80039EB6D03F1100243F42F
:1022F0008013EA65A362F8BDCC3500084080001069
:10230000426D90F84E10D2F8003823F4FE6343EA91
:102310000113C2F8003870472DE9F0410EB200EB0E
:1023200086080D46D8F80C100F6807F00303022B3F
:1023300050D0032B50D03D4A3D4F012B18BF1746BC
:10234000446D4FEA451E04EB0E030022C3F8102B28
:102350008A6905F1100C002A40D04A8A05F1580319
:102360005B013A43E2500123D4F81C2803FA0CF332
:102370001343A6444A69C4F81C380023CEF8103928
:1023800005F13F03002A39D00A8A898B9208012976
:1023900088BF4A43C16D04EB8303561841EA0242E9
:1023A000C66529465A602046FFF78EFED8F80C30E5
:1023B0001B8A43EA85531F4305F148035B01E7503D
:1023C0000123D4F81C2803FA05F51543C4F81C585A
:1023D000BDE8F081174FB3E7174FB1E704EB4613A1
:1023E000D3F8002B22F40042C3F8002BD4F81C28A9
:1023F000012303FA0CF322EA0303BAE704EB830395
:102400000E4A5A6004EB461629462046FFF75CFE4A
:10241000D6F8003923F40043C6F80039D4F81C3844
:10242000012202FA05F523EA0505CFE70080001036
:10243000008004100080081000800C1000040002CE
:10244000826D1268C265FFF721BE00005831436DEE
:1024500049015B5813F4004004D013F4001F14BF6B
:1024600001200220704700004831436D49015B584C
:1024700013F4004004D013F4001F14BF0120022005
:102480007047000000EB8101CB68196A0B6813608C
:102490004B6853607047000000EB810330B5DD6886
:1024A000AA691368D36019B9402B84BF4023136015
:1024B0006B8A1468426D1C44013CB4FBF3F4634323
:1024C000033323F0030302EB411043EAC44343F018
:1024D000C043C0F8103B2B6803F00303012B09B283
:1024E0000ED1D2F8083802EB411013F4807FD0F8F7
:1024F000003B14BF43F0805343F00053C0F8003B4F
:1025000002EB4112D2F8003B43F00443C2F8003B17
:1025100030BD00002DE9F041244D6E6D06EB4013F7
:102520000446D3F8087BC3F8087B38070AD5D6F8E9
:102530001438190706D505EB84032146DB682846C5
:102540005B689847FA072FD5D6F81438DB072BD5E8
:1025500005EB8403D968CCB98B69488A5E68B6FB01
:10256000F0F200FB12628AB91868DA6890420DD264
:10257000121A83E81400202383F311880B482146A4
:10258000FFF78AFF84F31188BDE8F081012303FA85
:1025900004F26B8923EA02036B81CB6823B12146E5
:1025A0000248BDE8F0411847BDE8F081A42D0020A5
:1025B00000EB810370B5DD68436D6C692668E660E9
:1025C0004A0156BB1A444FF40020C2F810092A6889
:1025D00002F00302012A0AB20ED1D3F8080803EB75
:1025E000421410F4807FD4F8000914BF40F08050EA
:1025F00040F00050C4F8000903EB4212D2F8000981
:1026000040F00440C2F80009D3F83408012202FA6D
:1026100001F10143C3F8341870BD19B9402E84BFCD
:102620004020206020682E8A841940F00050013C30
:102630001A44B4FBF6F440EAC440C6E7F8B50446D1
:102640001E48456D05EB4413D3F80869C3F80869C3
:10265000F10717D5D5F81038DA0713D500EB840346
:10266000D9684B691F68DA68974218D2D21B0027D5
:102670001A605F60202383F311882146FFF798FFDB
:1026800087F31188330617D5D5F834280123A340E2
:10269000134211D02046BDE8F840FFF71FBD0123CB
:1026A00003FA04F2038923EA020303818B68002BF7
:1026B000E8D021469847E5E7F8BD00BFA42D0020EB
:1026C00096482DE9F84F456D6E69AB691E4016F4CA
:1026D000805F6E61044605D0FEF724FEBDE8F84F2A
:1026E00000F054BC002E12DAD5F8003E8B489B0750
:1026F0001EBFD5F8003E23F00303C5F8003ED5F811
:10270000043823F00103C5F80438FEF735FE370519
:1027100002D58248FEF724FEB0040CD5D5F808385F
:1027200013F0060FEB6823F470530CBF43F41053FF
:1027300043F4A053EB60310704D56368DB680BB149
:1027400076489847F2025AD4B3020CD5D4F8548094
:10275000DFF8C8A100274FF00109A36D9B68F9B20B
:102760008B4280F08780F70619D5616D0A6AC2F343
:102770000A1702F00F0302F4F012B2F5802F00F0F6
:10278000A180B2F5402F0AD104EB830301F58051FB
:10279000DB68186A00231A469F4240F087803003A6
:1027A000D5F8184813D5E10302D50020FFF7B2FE93
:1027B000A20302D50120FFF7ADFE630302D502207C
:1027C000FFF7A8FE270302D50320FFF7A3FE75033A
:1027D00084D5E00702D50020FFF730FFA10702D51E
:1027E0000120FFF72BFF620702D50220FFF726FF2B
:1027F00023077FF573AF0320FFF720FF6EE7D4F8C0
:102800005480DFF818A100274FF00109A36D9B68E1
:102810005FFA87FB5B4597D308EB4B13D3F800298E
:1028200002F44022B2F5802F22D1D3F80029002AE9
:102830001EDAD3F8002942F09042C3F80029D3F8F9
:102840000029002AFBDB5946606DFFF73DFC228919
:1028500009FA0BF322EA0303238104EB8B03DB6801
:102860009B6813B15946504698475846FFF736FCC7
:102870000137CBE708EB4112D2F8003B03F44023C9
:10288000B3F5802F10D1D2F8003B002B0CDA62890F
:1028900009FA01F322EA0303638104EB8103DB6895
:1028A000DB680BB150469847013756E79C0708BFD5
:1028B0000A68072B98BF027003F101039CBF120A3C
:1028C000013069E7023304EB830201F5805152685D
:1028D00090690268D0F808C04068A2EB000E0022A0
:1028E000104697420AD104EB830463689B699A6897
:1028F0003A449A605A6817445F6050E712F0030F39
:1029000008BF0868964588BF8CF8000002F10102F4
:1029100084BF000A0CF1010CE3E700BFA42D0020E6
:10292000436D03EB4111D1F8003B43F40013C1F8B0
:10293000003B7047436D03EB4111D1F8003943F47C
:102940000013C1F800397047436D03EB4111D1F812
:10295000003B23F40013C1F8003B7047436D03EBC9
:102960004111D1F8003923F40013C1F80039704740
:1029700000F1604300F01F02400903F561430901C3
:102980008000C9B200F1604083F8001300F5614097
:1029900001239340C0F880310360704730B5039C39
:1029A0000172043304FB0325C361049B036300210C
:1029B000059B00604060C160426102618561046204
:1029C00042628162C162436330BD00000022416AFD
:1029D00041610161C2608262C2626FF00101FEF773
:1029E000EBBF000003694269934203D1C2680AB198
:1029F00000207047181D704703691960C2680132D2
:102A0000C260C269134482690361934224BF436A6E
:102A100003610021FEF7C4BF38B504460D46E368E4
:102A20003BB16269131D1268A3621344E362002084
:102A300038BD237A33B929462046FEF7A1FF002886
:102A4000EDDA38BD6FF00100FBE70000C368C26932
:102A5000013BC3604369134482694361934224BFCD
:102A6000436A436100238362036B03B118477047D5
:102A700070B52023044683F31188866A3EB9FFF7B8
:102A8000CBFF054618B186F31188284670BDA36AAE
:102A9000E26A13F8015BA362934202D32046FFF778
:102AA000D5FF002383F31188EFE700002DE9F84FED
:102AB00004460E4690469946202787F31188002544
:102AC000AA46D4F828B0BBF1000F09D149462046E8
:102AD000FFF7A2FF20B18BF311882846BDE8F88FDD
:102AE000A16AE36AA8EB050B5B1A9B4528BF9B46CE
:102AF000BBF1400F1BD9334601F1400251F8040BE2
:102B000043F8040B9142F9D1A36A40334036A362E3
:102B10004035A26AE36A9A4202D32046FFF796FF45
:102B20008AF311884545D8D287F31188C9E7304622
:102B30005A46FEF71DF9A36A5B445E44A3625D44F6
:102B4000E7E7000010B5029C0172043303FB042187
:102B5000C36100238362C362039B0363049B006021
:102B60004060C46042610261816104624262436309
:102B700010BD0000026AC260426A42610261002226
:102B80008262C2626FF00101FEF716BF43690269FB
:102B90009A4203D1C2680AB100207047184650F823
:102BA000043B0B6070470000C368C2690133C36017
:102BB0004369134482694361934224BF436A43617A
:102BC0000021FEF7EDBE000038B504460D46E3686F
:102BD0003BB123691A1DA262E2691344E36200203B
:102BE00038BD237A33B929462046FEF7C9FE0028AE
:102BF000EDDA38BD6FF00100FBE7000003691960F2
:102C0000C268013AC260C269134482690361934297
:102C100024BF436A036100238362036B03B1184737
:102C20007047000070B5202304460E4683F31188D8
:102C3000856A35B91146FFF7C7FF10B185F31188D2
:102C400070BDA36A1E70A36AE26A01339342A36255
:102C500004D3E16920460439FFF7D0FF002080F358
:102C6000118870BD2DE9F84F04460D4691469A46ED
:102C70004FF0200888F311880026B346A76A4FB9A1
:102C800051462046FFF7A0FF20B187F31188304658
:102C9000BDE8F88FA06AE76AA9EB06033F1A9F42D6
:102CA00028BF1F46402F1BD905F1400355F8042BC0
:102CB00040F8042B9D42F9D1A36A4033A362403609
:102CC000A26AE36A9A4204D3E16920460439FFF715
:102CD00095FF8BF311884E45D9D288F31188CDE743
:102CE00029463A46FEF744F8A36A3B443D44A362B2
:102CF0003E44E5E7026943699A4203D1C3681BB9C0
:102D0000184670470023FBE7836A002BF8D0043B8A
:102D10009B1AF5D01360C368013BC360C3691A44B2
:102D2000836902619A4224BF436A0361002383627C
:102D30000123E5E700F06CB94FF0804300225863AF
:102D40001A610222DA6070474FF080430022DA6095
:102D5000704700004FF0804358637047FEE7000063
:102D600010B5174CFEF712FDFEF734FE8022154910
:102D70002046FEF7B9FD012344F8180C0374124BEA
:102D8000124AD96821F4E0610904090C0A43104988
:102D9000DA60CA6842F08072CA600E490A6842F07E
:102DA00001020A601022DA77202283F82220002311
:102DB00083F3118862B60848BDE81040FEF7B6BD3F
:102DC00030260020FC35000800ED00E00003FA0585
:102DD000F0ED00E0001000E0043600082DE9F84FA7
:102DE0001F4C4FF00008656904F11407C1464FF00D
:102DF0008043266A5B6AAA689E1B96421DD34FF0E9
:102E0000200AAA68236AD5F80CB0134423622B6801
:102E1000BB425F60A6EB02066361C5F80C8001D17E
:102E2000FFF792FF89F311882869D8478AF3118840
:102E30006569AB689E42E4D2D9E76269BA420CD0B8
:102E4000916823628E1B9660A86802282CBF181810
:102E5000981CBDE8F84FFFF77DBFBDE8F88F00BFB5
:102E600008260020034B59685A68521A9042FBD832
:102E7000704700BF001000E04B6843608B688360C0
:102E8000CB68C3600B6943614B6903628B69436222
:102E90000B6803607047000008B5224B22481A698E
:102EA00040F2FF110A431A611A6922F4FF7222F0FC
:102EB00001021A611A691A6B0A431A631A6D0A43EE
:102EC0001A651A4A1B6D1146FFF7D6FF184802F122
:102ED0001C01FFF7D1FF174802F13801FFF7CCFFC3
:102EE000154802F15401FFF7C7FF144802F17001C1
:102EF000FFF7C2FF124802F18C01FFF7BDFF114836
:102F000002F1A801FFF7B8FF0F4802F1C401FFF773
:102F1000B3FF0E4802F1E001FFF7AEFFBDE8084045
:102F200000F0E0B8003802400000024024360008FB
:102F30000004024000080240000C02400010024061
:102F40000014024000180240001C02400020024011
:102F500008B500F037FAFFF703FFFFF767F8BDE8A1
:102F60000840FEF741BE000070470000064A536863
:102F700023F001035360EFF30983683383F3098877
:102F8000002383F31188704730EF00E010B5202351
:102F900083F31188104B5B6813F4006318D0F1EED3
:102FA000103AEFF309844FF0807344F84C3C0B4B1C
:102FB000DB6844F8083CA4F1680383F30988FEF752
:102FC00073FC18B1064B44F8503C10BD054BFAE7B2
:102FD00083F3118810BD00BF00ED00E030EF00E08A
:102FE00031030008340300084FF0804310B51A691C
:102FF000920708D500241C61202383F31188FFF772
:10300000EDFE84F31188BDE81040FFF7BFBF00005C
:10301000104B1A6C42F001021A641A6E42F001025F
:103020001A660D4A1B6E936843F0010393604FF0DC
:10303000804353229A624FF0FF32DA6200229A6193
:103040005A63DA605A6001225A6108211A601C2012
:10305000FFF78EBC00380240002004E01F4B1A69C5
:103060006FEAC2526FEAD2521A611A69C2F30802B9
:103070001A614FF0FF301A695A69586100215A6984
:1030800059615A691A6A62F080521A621A6A02F029
:1030900080521A621A6A5A6A58625A6A59625A6A9D
:1030A0001A6C42F080521A641A6E42F080521A660C
:1030B0001A6E0B4A106840F480701060186F00F4AC
:1030C0004070B0F5007F1EBF4FF48030186719675D
:1030D000536823F40073536000F054B90038024081
:1030E00000700040304B4FF080521A642F4A4FF46A
:1030F000404111601A6842F001021A601A68920792
:10310000FCD59A6822F003029A60274B19469A6808
:1031100012F00C02FBD1186800F0F90018609A60F8
:103120001A6842F480321A600B689B03FCD54B6F1F
:1031300043F001034B671C4B5A6F9007FCD51C4AA8
:103140005A601A6842F080721A60184A536859042B
:10315000FCD5154B1A689201FCD5164A9A60164B9D
:103160001A68164B9A42164B1BD1164A1168164A1A
:10317000914216D140F205121A600B4B9A6842F048
:1031800002029A609A6802F00C02082AFAD15A6C7C
:1031900042F480425A645A6E42F480425A665B6E30
:1031A000704740F20572E7E70038024000700040C7
:1031B0000854400700948838002004E0116400207F
:1031C000003C024000ED00E041C20F41084A08B552
:1031D000536911680B4003F00103536123B1054AA1
:1031E00013680BB150689847BDE80840FFF7CEBEA2
:1031F000003C014088250020084A08B55369116841
:103200000B4003F00203536123B1054A93680BB1ED
:10321000D0689847BDE80840FFF7B8BE003C0140C1
:1032200088250020084A08B5536911680B4003F04F
:103230000403536123B1054A13690BB150699847E0
:10324000BDE80840FFF7A2BE003C014088250020F1
:10325000084A08B5536911680B4003F0080353612D
:1032600023B1054A93690BB1D0699847BDE808407E
:10327000FFF78CBE003C014088250020084A08B5B5
:10328000536911680B4003F01003536123B1054AE1
:10329000136A0BB1506A9847BDE80840FFF776BE45
:1032A000003C014088250020174B10B55C691A6866
:1032B000144004F478725A61A30604D5134A936A41
:1032C0000BB1D06A9847600604D5104A136B0BB156
:1032D000506B9847210604D50C4A936B0BB1D06B09
:1032E0009847E20504D5094A136C0BB1506C984716
:1032F000A30504D5054A936C0BB1D06C9847BDE883
:103300001040FFF743BE00BF003C0140882500206D
:103310001A4B10B55C691A68144004F47C425A6177
:10332000620504D5164A136D0BB1506D98472305FD
:1033300004D5134A936D0BB1D06D9847E00404D5C2
:103340000F4A136E0BB1506E9847A10404D50C4A76
:10335000936E0BB1D06E9847620404D5084A136F80
:103360000BB1506F9847230404D5054A936F0BB1F6
:10337000D06F9847BDE81040FFF708BE003C014001
:1033800088250020062108B50846FFF7F1FA062136
:103390000720FFF7EDFA06210820FFF7E9FA0621DA
:1033A0000920FFF7E5FA06210A20FFF7E1FA0621D6
:1033B0001720FFF7DDFA06212820BDE80840FFF7B7
:1033C000D7BA000008B5FFF749FEFDF78DFDFDF700
:1033D0003BFFFDF70FFEFFF7C7FDBDE80840FFF715
:1033E000A9BC0000034611F8012B03F8012B002AA9
:1033F000F9D17047121012131211000053544D33BB
:1034000032463F3F3F00000000000000FC33000850
:103410003F00000013040000383400083F000000A3
:1034200019040000423400083F000000210400009D
:103430004C3400083F00000053544D3332463430C2
:10344000780053544D3332463432780053544D3360
:103450003246343436585800000000006D0F000822
:10346000590F0008950F0008810F00088D0F000804
:10347000790F0008650F0008510F0008F10F0008D0
:103480000000000001000000000000000200000039
:1034900000000000991100080112000840004000DF
:1034A000E02A0020F02A00200200000000000000B6
:1034B00003000000000000004512000800000000AA
:1034C00010000000002B00200000000001000000A0
:1034D00000000000A42D002001010200417264756B
:1034E00050696C6F740025424F415244252D424C67
:1034F000002553455249414C25000000891B000816
:10350000F11A0008051100086D1B000843000000B7
:103510001435000809024300020100C0320904000A
:103520000001020201000524001001052401000130
:10353000042402020524060001070582030800FF97
:1035400009040100020A0000000705010240000012
:1035500007058102400000001200000060350008ED
:10356000120110010200004009124157000201023D
:10357000030100000403090425424F415244250081
:103580004D6174656B46343035003031323334353B
:103590003637383941424344454600000040000078
:1035A000004000000040000000400000000001005A
:1035B0000000020000000200000002000000020003
:1035C00000000200000002000000020000000000F5
:1035D0008D1300086D160008191700084000400000
:1035E000042E0020042E002001000000142E0020D4
:1035F0008000000040010000030000006D61696E62
:10360000000000001C360008202E0020183000208A
:10361000010000005D2D00080000000069646C6579
:10362000000000000000801200000000AAAAAAAA60
:1036300000000000FFBF00000000000000A00A0022
:103640000000140000000000AAAAAAAA00001000AE
:10365000FFFD000000000000000000001500000059
:1036600000000000AAAAAAAA15000000FFFF00009F
:10367000000000000000000000000000000000004A
:10368000AAAAAAAA00000000FFFF00000000000094
:10369000000000000000000000000000AAAAAAAA82
:1036A00000000000FFFF000000000000000000001C
:1036B0000000000000000000AAAAAAAA0000000062
:1036C000FFFF0000000000000000000000000000FC
:1036D00000000000AAAAAAAA00000000FFFF000044
:1036E00000000000000000000000000000000000DA
:1036F0000A000000000000000300000000000000BD
:1037000000000000000000000000000000000000B9
:1037100000000000000000000000000000000000A9
:10372000FF00960000000008040000007435000847
:103730000000000000000000000000000000000089
:103740000000000000000000FFFFFFFFFFFFFFFF81
:10375000FFFFFFFFFFFFFFFFFFFFFFFFFFFFFFFF79
:10376000FFFFFFFFFFFFFFFFFFFFFFFFFFFFFFFF69
:10377000FFFFFFFFFFFFFFFFFFFFFFFFFFFFFFFF59
:10378000FFFFFFFFFFFFFFFFFFFFFFFFFFFFFFFF49
:020000040801F1
:1000000000060020490F0108B18209080D82090885
:10001000798209080D820908458209084B0F0108F9
:100020004B0F01084B0F01084B0F010891AA0B0859
:100030004B0F01084B0F01084B0F01084B0F010834
:100040004B0F01084B0F01084B0F01084B0F010824
:100050004B0F01084B0F010801B60B0829B60B081E
:1000600051B60B0879B60B08A1B60B08915A0B08CC
:10007000B95A0B08E55A0B08115B0B083D5B0B08DE
:10008000655B0B08915B0B08155A0B084B0F0108B9
:100090004B0F01084B0F01084B0F0108C9B60B08A5
:1000A00001B80B0815B80B0829B80B082DB80B08B8
:1000B00031B80B0845B80B0859B80B0821610B087B
:1000C000C9620B084B0F01084B0F01084B0F0108C9
:1000D0004B0F01089DB70B08B1B70B08C5B70B084C
:1000E0002DB70B084B0F01084B0F010869B80B081F
:1000F0006DB80B0881B80B0885B80B08BD5B0B0801
:100100004B0F01084B0F01084B0F01084B0F010863
:10011000D9B70B08EDB70B084B0F01084B0F0108BF
:10012000E95B0B08115C0B083D5C0B08695C0B0874
:10013000955C0B084B0F01084B0F01084B0F010892
:100140004B0F01084B0F01084B0F0108ADB10B0815
:10015000BD5C0B08E95C0B08155D0B084B0F010833
:100160004B0F01084B0F01084B0F01084B0F010803
:100170004B0F01084B0F01084B0F01084B0F0108F3
:100180004B0F01084B0F01084B0F01084B0F0108E3
:100190004B0F01084B0F01084B0F01084B0F0108D3
:1001A0004B0F01084B0F01084B0F01084B0F0108C3
:1001B0004B0F01084B0F01084B0F01084B0F0108B3
:1001C0004B0F01084B0F01084B0F01084B0F0108A3
:1001D0004B0F01084B0F01084B0F01084B0F010893
:1001E000793001081D5F0108EDE10108F92F0208CF
:1001F000DDAF0208CDE4030839660508496C05083F
:10020000E5E80508F5490608D15106080555060830
:1002100025B306081DD0060835600708F5CE070887
:1002200009DC07085574090831790908B9390A0841
:10023000659A0A089DBE0A085DC90A08CDF80A0831
:10024000E5FE0A08000000000000000000000000B9
:1002500081F0004102E000BF83F0004330B54FEA77
:1002600041044FEA430594EA050F08BF90EA020FE4
:100270001FBF54EA000C55EA020C7FEA645C7FEA77
:10028000655C00F0E2804FEA5454D4EB5555B8BF9A
:100290006D420CDD2C4480EA020281EA030382EA0B
:1002A000000083EA010180EA020281EA0303362D9D
:1002B00088BF30BD11F0004F4FEA01314FF4801C70
:1002C0004CEA113102D0404261EB410113F0004F82
:1002D0004FEA03334CEA133302D0524263EB430339
:1002E00094EA050F00F0A780A4F10104D5F1200ED7
:1002F0000DDB02FA0EFC22FA05F2801841F1000132
:1003000003FA0EF2801843FA05F359410EE0A5F105
:1003100020050EF1200E012A03FA0EFC28BF4CF036
:10032000020C43FA05F3C01851EBE37101F00045EC
:1003300007D54FF0000EDCF1000C7EEB00006EEBF9
:100340000101B1F5801F1BD3B1F5001F0CD3490883
:100350005FEA30004FEA3C0C04F101044FEA4452DA
:1003600012F5800F80F09A80BCF1004F08BF5FEA61
:10037000500C50F1000041EB045141EA050130BD41
:100380005FEA4C0C404141EB0101013C28BFB1F553
:10039000801FE9D291F0000F04BF01460020B1FA9E
:1003A00081F308BF2033A3F10B03B3F120020CDA71
:1003B0000C3208DD02F1140CC2F10C0201FA0CF04F
:1003C00021FA02F10CE002F11402D8BFC2F1200CB4
:1003D00001FA02F120FA0CFCDCBF41EA0C0190406A
:1003E000E41AA2BF01EB0451294330BD6FEA0404B3
:1003F0001F3C1CDA0C340EDC04F11404C4F120029E
:1004000020FA04F001FA02F340EA030021FA04F3AF
:1004100045EA030130BDC4F10C04C4F1200220FA06
:1004200002F001FA04F340EA0300294630BD21FA44
:1004300004F0294630BD94F0000F83F4801306BF0A
:1004400081F480110134013D4EE77FEA645C18BFFE
:100450007FEA655C29D094EA050F08BF90EA020F95
:1004600005D054EA000C04BF1946104630BD91EA8D
:10047000030F1EBF0021002030BD5FEA545C05D190
:100480004000494128BF41F0004130BD14F58004CF
:100490003CBF01F5801130BD01F0004545F0FE4143
:1004A00041F470014FF0000030BD7FEA645C1ABF78
:1004B000194610467FEA655C1CBF0B46024650EAAF
:1004C000013406BF52EA033591EA030F41F40021DB
:1004D00030BD00BF90F0000F04BF0021704730B561
:1004E0004FF4806404F132044FF000054FF0000136
:1004F00050E700BF90F0000F04BF0021704730B5F7
:100500004FF4806404F1320410F0004548BF4042CB
:100510004FF000013EE700BF42004FEAE2014FEA20
:1005200031014FEA02701FBF12F07F4393F07F4FFB
:1005300081F06051704732F07F4208BF704793F0FE
:100540007F4F04BF41F40021704730B54FF4607411
:1005500001F0004521F000411CE700BF50EA010214
:1005600008BF704730B54FF000050AE050EA0102BD
:1005700008BF704730B511F0004502D5404261EB2D
:1005800041014FF4806404F132045FEA915C3FF46E
:10059000D8AE4FF003025FEADC0C18BF03325FEA0B
:1005A000DC0C18BF033202EBDC02C2F1200300FABC
:1005B00003FC20FA02F001FA03FE40EA0E0021FAE1
:1005C00002F11444BDE600BF70B54FF0FF0C4CF4CF
:1005D000E06C1CEA11541DBF1CEA135594EA0C0F81
:1005E00095EA0C0F00F0DEF82C4481EA030621EABC
:1005F0004C5123EA4C5350EA013518BF52EA0335F7
:1006000041F4801143F4801338D0A0FB02CE4FF0A8
:100610000005E1FB02E506F00042E0FB03E54FF0D8
:100620000006E1FB03569CF0000F18BF4EF0010ED0
:10063000A4F1FF04B6F5007F64F5407404D25FEACC
:100640004E0E6D4146EB060642EAC62141EA55517F
:100650004FEAC52040EA5E504FEACE2EB4F1FD0CC1
:1006600088BFBCF5E06F1ED8BEF1004F08BF5FEA3F
:10067000500E50F1000041EB045170BD06F00046F1
:1006800046EA010140EA020081EA0301B4EB5C049E
:10069000C2BFD4EB0C0541EA045170BD41F4801196
:1006A0004FF0000E013C00F3AB8014F1360FDEBFBB
:1006B000002001F0004170BDC4F10004203C35DA97
:1006C0000C341BDC04F11404C4F1200500FA05F31A
:1006D00020FA04F001FA05F240EA020001F00042BB
:1006E00021F0004110EBD37021FA04F642EB060131
:1006F0005EEA430E08BF20EAD37070BDC4F10C045B
:10070000C4F1200500FA04F320FA05F001FA04F21E
:1007100040EA020001F0004110EBD37041F100010A
:100720005EEA430E08BF20EAD37070BDC4F1200515
:1007300000FA05F24EEA020E20FA04F301FA05F27D
:1007400043EA020321FA04F001F0004121FA04F225
:1007500020EA020000EBD3705EEA430E08BF20EAF5
:10076000D37070BD94F0000F0FD101F0004640002F
:1007700041EB010111F4801F08BF013CF7D041EAB1
:10078000060195F0000F18BF704703F000465200B5
:1007900043EB030313F4801F08BF013DF7D043EA86
:1007A0000603704794EA0C0F0CEA135518BF95EA3C
:1007B0000C0F0CD050EA410618BF52EA4306D1D1C3
:1007C00081EA030101F000414FF0000070BD50EAE2
:1007D000410606BF1046194652EA430619D094EA6C
:1007E0000C0F02D150EA013613D195EA0C0F05D156
:1007F00052EA03361CBF104619460AD181EA0301AA
:1008000001F0004141F0FE4141F470014FF0000061
:1008100070BD41F0FE4141F4780170BD70B54FF0FC
:10082000FF0C4CF4E06C1CEA11541DBF1CEA13557C
:1008300094EA0C0F95EA0C0F00F0A7F8A4EB05045E
:1008400081EA030E52EA03354FEA013100F0888055
:100850004FEA03334FF0805545EA131343EA12631E
:100860004FEA022245EA111545EA10654FEA0026D3
:100870000EF000419D4208BF964244F1FD0404F58C
:10088000407402D25B084FEA3202B61A65EB0305E8
:100890005B084FEA32024FF480104FF4002CB6EBA5
:1008A000020E75EB030E22BFB61A754640EA0C0025
:1008B0005B084FEA3202B6EB020E75EB030E22BF65
:1008C000B61A754640EA5C005B084FEA3202B6EBA6
:1008D000020E75EB030E22BFB61A754640EA9C0065
:1008E0005B084FEA3202B6EB020E75EB030E22BF35
:1008F000B61A754640EADC0055EA060E18D04FEAF3
:10090000051545EA16754FEA06164FEAC30343EA92
:1009100052734FEAC2025FEA1C1CC0D111F4801F5F
:100920000BD141EA00014FF000004FF0004CB6E758
:1009300011F4801F04BF01430020B4F1FD0C88BFF7
:10094000BCF5E06F3FF6AFAEB5EB030C04BFB6EB02
:10095000020C5FEA500C50F1000041EB045170BDF5
:100960000EF0004E4EEA113114EB5C04C2BFD4EB22
:100970000C0541EA045170BD41F480114FF0000EA6
:10098000013C90E645EA060E8DE60CEA135594EA22
:100990000C0F08BF95EA0C0F3FF43BAF94EA0C0F25
:1009A0000AD150EA01347FF434AF95EA0C0F7FF49A
:1009B00025AF104619462CE795EA0C0F06D152EAEE
:1009C00003353FF4FDAE1046194622E750EA4106D2
:1009D00018BF52EA43067FF4C5AE50EA41047FF4E3
:1009E0000DAF52EA43057FF4EBAE12E74FF0FF3C48
:1009F00006E000BF4FF0010C02E000BF4FF0010C19
:100A00004DF804CD4FEA410C7FEA6C5C4FEA430C91
:100A100018BF7FEA6C5C1BD001B050EA410C0CBFE0
:100A200052EA430C91EA030F02BF90EA020F002042
:100A3000704710F1000F91EA030F58BF994208BFA9
:100A400090422CBFD8176FEAE37040F00100704766
:100A50004FEA410C7FEA6C5C02D150EA013C07D1BD
:100A60004FEA430C7FEA6C5CD6D152EA033CD3D008
:100A70005DF8040B704700BF8446104662468C4602
:100A80001946634600E000BF01B5FFF7B7FF002835
:100A900048BF10F1000F01BD4DF808EDFFF7F4FF5E
:100AA0000CBF012000205DF808FB00BF4DF808EDE9
:100AB000FFF7EAFF34BF012000205DF808FB00BF0C
:100AC0004DF808EDFFF7E0FF94BF012000205DF82E
:100AD00008FB00BF4DF808EDFFF7CEFF94BF0120E3
:100AE00000205DF808FB00BF4DF808EDFFF7C4FFDC
:100AF00034BF012000205DF808FB00BF4FEA410C25
:100B00007FEA6C5C02D150EA013C0AD14FEA430C07
:100B10007FEA6C5C02D152EA033C02D14FF0000044
:100B200070474FF0010070474FEA410212F5001282
:100B300015D211D56FF47873B3EB625212D94FEA24
:100B4000C12343F0004343EA505311F0004F23FA0E
:100B500002F018BF404270474FF00000704750EA63
:100B6000013005D111F0004008BF6FF00040704720
:100B70004FF00000704700BF4A0011D212F500127A
:100B800011D20DD56FF47873B3EB62520ED44FEAE5
:100B9000C12343F0004343EA505323FA02F0704765
:100BA0004FF00000704750EA013002D14FF0FF30A3
:100BB00070474FF0000070474FEA4102B2F1E04346
:100BC00024BFB3F5001CDCF1FE5C0DD901F0004C34
:100BD0004FEAC0024CEA5070B2F1004F40EB830084
:100BE00008BF20F00100704711F0804F21D113F1B0
:100BF0003872BCBF01F00040704741F480114FEAE9
:100C00005252C2F11802C2F1200C10FA0CF320FA71
:100C100002F018BF40F001004FEAC1234FEAD3238E
:100C200003FA0CFC40EA0C0023FA02F34FEA4303F8
:100C3000CCE77FEA625307D150EA01331EBF4FF081
:100C4000FE4040F44000704701F0004040F0FE409C
:100C500040F40000704700BF80F0004002E000BF99
:100C600081F0004142001FBF5FEA410392EA030F97
:100C70007FEA226C7FEA236C6AD04FEA1262D2EBE1
:100C80001363C1BFD218414048404140B8BF5B42E6
:100C9000192B88BF704710F0004F40F4000020F07F
:100CA0007F4018BF404211F0004F41F4000121F095
:100CB0007F4118BF494292EA030F3FD0A2F10102DF
:100CC00041FA03FC10EB0C00C3F1200301FA03F11D
:100CD00000F0004302D5494260EB4000B0F5000F40
:100CE00013D3B0F1807F06D340084FEA310102F1FF
:100CF0000102FE2A51D2B1F1004F40EBC25008BFB1
:100D000020F0010040EA03007047490040EB00007A
:100D1000013A28BFB0F5000FEDD2B0FA80FCACF17B
:100D2000080CB2EB0C0200FA0CF0AABF00EBC250A8
:100D300052421843BCBFD0401843704792F0000F96
:100D400081F4000106BF80F400000132013BB5E7E9
:100D50004FEA41037FEA226C18BF7FEA236C21D05F
:100D600092EA030F04D092F0000F08BF08467047C4
:100D700090EA010F1CBF0020704712F07F4F04D192
:100D8000400028BF40F00040704712F100723CBFA5
:100D900000F50000704700F0004343F0FE4040F4CF
:100DA000000070477FEA226216BF08467FEA23638D
:100DB0000146420206BF5FEA412390EA010F40F478
:100DC000800070474FF0000304E000BF10F00043C4
:100DD00048BF40425FEA000C08BF704743F09643AB
:100DE00001464FF000001CE050EA010208BF7047C6
:100DF0004FF000030AE000BF50EA010208BF70474D
:100E000011F0004302D5404261EB41015FEA010C61
:100E100002BF84460146002043F0B64308BFA3F159
:100E20008053A3F50003BCFA8CF2083AA3EBC2533B
:100E300010DB01FA02FC634400FA02FCC2F120025A
:100E4000BCF1004F20FA02F243EB020008BF20F091
:100E50000100704702F1200201FA02FCC2F12002F7
:100E600050EA4C0021FA02F243EB020008BF20EAEC
:100E7000DC7070477BB972B90029BEBF00204FF00B
:100E8000004106E008BF00281CBF6FF000414FF092
:100E9000FF3000F057B8ADF1080C6DE904CE002921
:100EA00009DB002B1ADBA0F03DFBDDF804E0DDE9F7
:100EB000022304B07047404261EB4101002B1BDB71
:100EC000A0F030FBDDF804E0DDE9022304B040428D
:100ED00061EB4101524263EB43037047524263EBC3
:100EE0004303A0F01FFBDDF804E0DDE9022304B0BA
:100EF000404261EB41017047524263EB4303A0F073
:100F000011FBDDF804E0DDE9022304B0524263EB9B
:100F10004303704753B94AB9002908BF00281CBFD2
:100F20004FF0FF314FF0FF3000F00CB8ADF1080C7E
:100F30006DE904CEA0F0F6FADDF804E0DDE9022365
:100F400004B07047704700BF02E000F000F8FEE711
:100F500072B6374880F30888364880F309883648E7
:100F60003649086040F20000CCF200004EF63471C1
:100F7000CEF200010860BFF34F8FBFF36F8F40F2D6
:100F80000000C0F2F0004EF68851CEF20001086079
:100F9000BFF34F8FBFF36F8F4FF00000E1EE100AE9
:100FA0004EF63C71CEF200010860062080F31488F2
:100FB000BFF36F8FA9F0CAFDA8F00AFE4FF05530BD
:100FC0001F491B4A91423CBF41F8040BFAE71D49F7
:100FD000184A91423CBF41F8040BFAE71A491B4AF0
:100FE0001B4B9A423EBF51F8040B42F8040BF8E742
:100FF00000201849184A91423CBF41F8040BFAE717
:10100000A9F0A8FDA8F036FE144C154DAC4203DA49
:1010100054F8041B8847F9E702F01EF8114C124DF2
:10102000AC4203DA54F8041B8847F9E7A9F090BDF5
:1010300000060020002200200000010808ED00E06A
:10104000000000200006002020180E0800220020CA
:10105000BC2B0020C02B0020B4520120E00101086D
:101060004402010844020108440201082DE9F04F3E
:101070002DED108AC1F80CD0C3689D46BDEC108AD6
:10108000BDE8F08F002383F311882846A047002095
:10109000A8F012FBFEE7A8F095F900DFFEE70000DC
:1010A00010F8012B11F8013B012A28BF9A42F7D012
:1010B000D01A704701F0FF01102A2BDB10F0070F48
:1010C00008D010F8013B013A8B422DD010F0070FE9
:1010D00042B3F6D1F0B441EA012141EA014122F0E4
:1010E00007047FF000070023F0E80256083C85EA79
:1010F000010586EA010685FA47F5A3FA87F586FA1F
:1011000047F6A5FA87F68EB9EED1F0BC01F0FF01E3
:1011100002F0070232B110F8013B013A83EA010301
:1011200013B1F8D10020704701387047002D06BF79
:1011300035460338073815F0010F07D1013015F493
:10114000807F02BF013015F4C03F0130F0BC013890
:10115000704700BF034613F8012B002AFBD1181A71
:1011600001387047036800221B68184773B50D46A5
:101170004021044676F058FA10B9012002B070BD43
:10118000124E96F9D631002BF7D05AF0FFFA437A77
:101190005BB95AF0FBFA837A3BB90D4B2A464021E2
:1011A000204676F049FA0020E8E7D6F8243BB6F965
:1011B000D821B3F906309A42DFDD064B00932A4668
:1011C000054B4021204676F037FAECE7C84B00206B
:1011D0007C2C0C089B2C0C08892C0C08F0B50D46B7
:1011E0009DB02021044676F01FFA10B901201DB0F1
:1011F000F0BD4F4E96F9D631ABB1D6F8242BB6F9E7
:10120000D831B2F90A1003F10A02914203DD40F22B
:101210008D32934207DC474B2A462021204676F048
:101220000BFA0020E3E796F9C531022B05D1424BBA
:101230002A462021204676F0FFF9B6F89831A3F52A
:101240007A739BB241F6583293420DD83B4F96EDDC
:10125000817AD7F88839D3ED097AB4EEE77AF1EEDE
:1012600010FA03DD364BD7E7364BD5E796ED827A99
:10127000D3ED0B7AB4EEE77AF1EE10FAF2DCB6F9C0
:10128000D231002B01DC304BC6E796F8643296F978
:1012900064220D2B06D84FF42153D340DB0701D530
:1012A0002A4BB9E72A480EF047FA012806D1D7F8A9
:1012B00094097DF02BF990B1012819D06422002106
:1012C00003A8AEF0A3FF2349D7F89009642303AA2B
:1012D0007CF00CFD00BB03AB00931F4B02E01F4BE7
:1012E00000931F4B2A462021204676F0A5F998E767
:1012F00096F8343B73B11B48192145F0D9FE48B12B
:101300001848D6F8B061192145F0F8FE8642D5DDBF
:10131000154BE5E7154BE3E71549D7F88809642332
:1013200003AA79F0FDFB00287FF460AFD3E700BF8C
:10133000C84B0020A42C0C08B72C0C08C86B00204C
:10134000EF2C0C08DF2C0C08092D0C081E2D0C08A6
:10135000BC850020982D0C089C2D0C08632D0C08D2
:101360003E2D0C08D0380020822D0C08732D0C085F
:10137000AE2D0C0807B504487EF044FC00F00100D7
:1013800003B05DF804FB00BF347500202DE9F04385
:10139000464E0446D6F8E40E0368A5B01B690D4618
:1013A0009847814613F00CFE6422804600210BA86A
:1013B000AEF02CFF64230BAA4946404613F00EF909
:1013C000074650B93A4A0BAB2946204676F00CFB4B
:1013D0000027384625B0BDE8F08306F1980063F099
:1013E00023F9B9F1000F03D1D6F8E43A1A0709D569
:1013F000304810F0FFFE78B92F4A2946204676F093
:10140000F3FAE5E710F0060FE3D0A6F5005010F070
:10141000F1FE08B9294AF0E703A9404612F016FF89
:1014200028B19DF80D305B0601D5254AE5E7D6EDDC
:101430007D7AF5EEC07AF1EE10FA4FF00003C8DDC8
:10144000089309930A930DF1200907AB019305AAAC
:1014500006AB04A9CDF80090404613F0C7FA484601
:101460002AF0CCF8D6ED7D7AB4EEE70AF1EE10FA68
:1014700001DB144AC1E79DED057AF4EEC77AF1EE7F
:1014800010FA01D8104AB8E79DED047AF4EEC77A55
:10149000F1EE10FA01D80D4AAFE79DED067AF4EEB1
:1014A000C77AF1EE10FA94D8094AA6E7C84B002093
:1014B000B22D0C08C82B0020BB2D0C08D22D0C0817
:1014C000F82D0C08062E0C081B2E0C08312E0C08CB
:1014D000472E0C0808B5064B93F8FD3E9B0704D534
:1014E000044A76F081FA002008BD0120FCE700BF25
:1014F000C84B00205B2E0C0870B50C4C0546D4F888
:10150000E40E03685B690E46984710B1012420463B
:1015100070BDA4F5005010F07FFE04460028F5D100
:10152000034A3146284676F05FFAF0E7C84B0020C0
:101530006B2E0C082DE9F043DFF80881D8F8083F3E
:1015400093F8CB409BB005460E467CBB5AF01EF983
:1015500020215BF00BF868BB4FF0010998F8D23EF0
:101560004BB198F8D43E33B1334A3146284676F031
:101570003BFA4FF000093146284677F099F864228B
:10158000071E4FF0000101A818BF4F46AEF03EFE07
:10159000D8F8080F036801AA1B6864219847F8B9B6
:1015A000264A01AB3146284676F01EFA20461BB08B
:1015B000BDE8F0835AF0EAF81F215AF0D7FF38B19E
:1015C0001F4A3146284676F00FFA4FF00009C5E76A
:1015D0005AF0DCF8A5215AF0C9FF0028F0D1BBE78A
:1015E000002FE3D0AB6833B92B6831465B6B2846DC
:1015F00098470446DAE731462846FFF7EFFD3146C3
:1016000004462846FFF766FF314604402846FFF7A8
:10161000ADFDE4B2044031462846FFF76DFF314688
:101620000440284676F008FA31460440284677F010
:1016300057F80440BAE700BF972E0C08AF2E0C08ED
:101640007D2E0C08C84B002008B5FFF773FF034A36
:1016500082F8C40E024A907108BD00BFC84B00203A
:1016600090890020F7B505460F4675F083FF0446C4
:1016700078B10221284675F0D7FF064648B11548D3
:101680007EF0C0FAC205C0F30723C0F3002403D5DF
:101690003446204603B0F0BD9B07F9D50D487EF0D7
:1016A000BFFA0D4B03F63813D3ED007AF8EEE77A64
:1016B00030EE670ADFED097AB0EEC00AB4EEE70A51
:1016C000F1EE10FAE4DD064B3A460221284675F0A9
:1016D000B3FFDEE734750020C86B00200000C8426D
:1016E000BA2E0C08F8B505460E4676F035FA1021EC
:1016F0000746284675F098FF20B12846FFF73AFEC6
:10170000044610B13C462046F8BD034B324610213A
:10171000284675F091FFF6E7CD2E0C0870B505460A
:101720000E4675F027FF044670B18021284675F0FB
:101730007BFF50B1074B93F85D3443B1064B324603
:101740008021284675F078FF0024204670BD0446AD
:10175000FBE700BFC85B0020E12E0C0838B50D4D3B
:101760000446D5F894097CF0D1FE012810D0D5F8B4
:1017700094097CF0CBFE022804D02046BDE8384016
:1017800075F0FABE04480DF0D7FF0128F5D138BD39
:101790000020FCE7C86B0020BC850020F0B50F4D91
:1017A00085B0D5F81C3B0093D5F8203B0193D5F8C4
:1017B000243B02936A46D5F8283B039306460F461E
:1017C00076F030FF39460446304675F067FF20401A
:1017D000C0B285F8C30E05B0F0BD00BFC84B0020F5
:1017E0002DE9F04106462248DFF898800F4662F066
:1017F0001BFF0546D8F8E40E03681B6998470446AA
:1018000030B915F0060F03D1D8F8183F022B05D1D7
:101810003946304676F010F8044618B3394630465B
:10182000FFF7B4FD0546E8B1ECB10821304675F08C
:10183000FBFEC0B10F481DF023FDA0B10E4B93F885
:10184000DC23B02101FB023203F50053B2F8E6219C
:10185000B3F9C6319A4206DD084B3A4608213046B4
:1018600075F0EAFE0025064BDD712846BDE8F081E3
:10187000604C0020E02C0020C82B0020F22E0C0829
:1018800090890020C84B0020F7B504460E4613F09F
:1018900097FB074612F09CFC28B94C4A01212046D0
:1018A00076F0A2F812E04A4DD5F8E40E036831460E
:1018B0009B69984768B9D5F8E40E03681B6C984794
:1018C000444A03460121204676F08EF8002003B0FA
:1018D000F0BDA368002BFAD01021204675F0A4FEBD
:1018E00008B3D7ED937A97ED920A20EE270AAAF073
:1018F000CBFFDFED397AB5F9983120EE270ADFED1D
:10190000377A20EE270A07EE903AF8EEE77AB4EE3F
:10191000E70AF1EE10FA06DD314B012210212046D4
:1019200075F08AFED2E74021204675F07DFE28B38F
:10193000012E1CD0232E1AD0042E18D0D5F8243B0B
:101940002848B3F9083000EE103AB8EEC00A00F0AB
:10195000A3FBB5EEC00AF1EE10FA1ADD224B00939C
:101960000122224B4021204675F066FEAEE7D5F8F5
:10197000E40E0368DB6B98470028DFD01C4B1B6824
:10198000D86A0368DB6998470128014616D1194ACD
:1019900085E7D5F8E40E03685B69984730B1D5F860
:1019A000243BB3F90830002BE8DDD7E7D5F8E40E87
:1019B00003681B6898470B28E0D1F0E731462046C2
:1019C00003B0BDE8F04076F067BB00BF002F0C0805
:1019D000C84B0020112F0C08E02E65420000C842C1
:1019E000252F0C08C82B00209B2C0C082D2F0C0831
:1019F000C0870020392F0C08F8B505460E46FFF7C2
:101A0000C5FC084B0746D87131462846FFF774FDE0
:101A10003146041E284618BF3C4676F0F5FC2040AF
:101A2000C0B2F8BD90890020F8B54A4E33789BB912
:101A3000494CD4F8087F97F8CB700125357017B161
:101A40003370012009E076F0F3FE38B9434A307074
:101A5000137843F0010313700020F8BD4EF002FF2D
:101A600029464DF0E9FEA4F5005006F06DFA3C4B16
:101A70001D710B2541F0D4FA013D41F06FFA15F0CC
:101A8000FF05F7D1374800F0EFFE13F099FAD0F8D0
:101A90000022C4F8302F90F87C32DA0748D412F0D4
:101AA0000DFE4EF0DFFE3C214EF072FC04F56F633C
:101AB00000221A6000212B4800F06AFF294810F02C
:101AC00099FB0146284881F0D9FF284B1B68D86A4A
:101AD000036801211B689847D4F8080F03689B6AC4
:101AE00098470121D4F8080F7FF042F84EF0BAFE73
:101AF0000546D4F8E40E03681B68984794F858210B
:101B0000014628464EF07EF8164806F00FFA0025EA
:101B10004AF00AFE4AF054F9357086F0FBFB144B8C
:101B200084F8D95EC3F8A009012384F8D53E88E77C
:101B30009B07BFD429460B4804F0E4FB0D487EF018
:101B40006FF8DFED0D7A20EE270A04F56F6383ED61
:101B5000000AAFE7C02B0020C84B00208C89002072
:101B600090890020C82B002088550020C0870020C5
:101B7000C86B0020347500200AD7233C2DE9F043C0
:101B8000344CD4F8083F93F8CB3085B0002B5ED0AE
:101B900052B1012901D0232906D194F8C73E1BB9BF
:101BA000002005B0BDE8F08376F0F4FE0028F7D001
:101BB00013F006FA06461AF017F90746304612F0F7
:101BC0000DF8E0B197F92430022B18D100254FF021
:101BD00000085FFA85F901AA49463046CDF804802D
:101BE000CDF80880CDF80C8012F094FB20B101AA4A
:101BF0004946384619F07EFC0135032DE9D11648D7
:101C0000012106F0FDFB1448012106F035FB0021FF
:101C1000D4F8080F7EF0ACFF10482CF061F94EF0BC
:101C200021FE00214DF008FE0D4B1B68D86A0368A9
:101C300000211B689847D4F8E41E0A48002384F862
:101C4000D53E0B1A594259413C3084F057FB0120D4
:101C5000A7E700BFC84B0020C82B0020F07F002062
:101C6000C08700208C81002010B5064CD4F8E40E0B
:101C700003685B6A984718B1D4F8083F93F8CB0023
:101C800010BD00BFC84B002030B52DED028B89B0D0
:101C90000C46B0EE408AFFF7E7FF0546002838D033
:101CA000B4EE488AF1EE10FA7CBFDFED1C8ADFED5E
:101CB0001C7A226863689FED1A0A68BFDFED198AF3
:101CC000029278BF68EE288A02A878BF68EEA78AD9
:101CD000D4ED027A0393F1EE677ACDED047A29F020
:101CE0004DF8B4EE488A00220123F1EE10FACDE956
:101CF00000238DED050ACDED060A9FED0A0A0A487C
:101D00008DED071AF0EE680A68BF134605A90BF0BF
:101D100025FE284609B0BDEC028B30BDE02E6542A1
:101D20000000C842000000006084002010B50C468E
:101D3000FFF79AFF28B121460248BDE8104000F0A5
:101D4000E9BA10BDC82B0020014862F0CDBD00BF2C
:101D5000604C002008B500F5005090F8C53E8B425D
:101D600009D080F8C51E31B14EF07CFDBDE80840B9
:101D70000F214EF00DBB08BD70B500F500560546AD
:101D8000D6F8183F8B420C4612D0012911D00229F7
:101D900016D059B94EF066FD1B214EF0F9FA0D4AE6
:101DA00005F5325006213C3051F016FDC6F8184FAB
:101DB00070BD4EF057FD1A214EF0EAFA064AEFE7E1
:101DC000012100F0E5FD4EF04DFD1D214EF0E0FA41
:101DD000024AE5E7472F0C085C2F0C08572F0C0828
:101DE00010B500F500520C4692F8FD3E03F00101DB
:101DF000A14209D064F3000382F8FD3EDB0704D45E
:101E000005F0A0FC024B9C7210BD05F063FEF9E7E3
:101E10009089002000F5005090F8FD3E61F34103E9
:101E200080F8FD3E014B1973704700BF9089002078
:101E300010B5044659F0AAFC20215AF097FB04F58E
:101E40000054003818BF012084F8D20E10BD0000E5
:101E500010B504464AF068FC04F50052436FD2F80E
:101E6000082F04F58044D360D4F888299366D4F809
:101E70009029C2F8FC32D4F8880903685B6D984752
:101E8000D4F888090368BDE810409B6D184700002E
:101E900070B52DED028B00F500550446D5F8083FCE
:101EA00093F8CB30002B74D095F8C73E002B70D13F
:101EB00000F5A04393F84C33002B6AD1D5F8E40E1B
:101EC00003685B699847002863D1334BD3F8E40E6D
:101ED00003681B6898470B285BD004F580469FED8C
:101EE0002F7AD6F89039D3EDDA7AF0EEE77AF4EE7D
:101EF000C77AF1EE10FA4CD5D5F8080F443051F0FE
:101F00000DF90346DFED260A93ED000A9F20B7EE98
:101F1000001A25F001FDB5EEC00AF1EE10FA38DD29
:101F200004F592406C307DF087FEDFED1E7AB0EE56
:101F3000C00AB4EEE70AF1EE10FA2AD504F580548F
:101F4000D6F88809D4F8B03407EE903A0368D3F88D
:101F50009830B8EEE78A984738EE408ADFED127A7B
:101F6000B0EEC88AB4EEE78AF1EE10FA11D5D4F8D3
:101F7000B43440F2E63203F2F313934209D8BDECD5
:101F8000028BD5F8080F9FED090ABDE8704080F07C
:101F9000C9B8BDEC028B70BDC84B002000000034F6
:101FA00000000000000070420000FA430AD7233C02
:101FB00008B500F50050D0F8080F03681B69984772
:101FC000F6EE007A20EE270AB5EEC00AF1EE10FA1E
:101FD00048BF9FED010A08BD0000000038B52DED97
:101FE000028B00F580450446D5F88839DFED110AEB
:101FF00093ED370A04F500547120B7EE001A25F06E
:102000008BFCD4F8080FD5F8905903681B69B0EE23
:10201000408A984738EE408A9FED070A28EE000A6A
:10202000BDEC028B05F505752846BDE838406DF01E
:1020300043BC00BF0000000000007A4400F580505F
:1020400000F5A16300F21450D3ED005AD2ED007AEE
:10205000D0ED006A91ED006A26EEE77A67EEA57A88
:10206000A6EE257AE6EE267A81ED007AC2ED007AB8
:102070007047000000F50050B0F9703A33B9B0F97C
:10208000D2010028B8BF404280B2704783EAE370B3
:10209000A0EBE370F8E7000070B52DED028B00F5C2
:1020A0000054054694F8FD1E11F00106B0EE408A7A
:1020B00004D09FED2C0ABDEC028B70BD59F066FB7D
:1020C000037F002BF5D0DFED288ADFED260AB0EE86
:1020D000681A4E20B0EE480A25F01EFC4FF4C87274
:1020E0003146B4F9DA01B0EE408A25F057FCA4F885
:1020F000DA0128460FF028FEB4F9DA3107EE100AAB
:1021000007EE903AB8EEC77AF8EEE77A77EE676AAC
:10211000B4EEE68AF1EE10FA0DD52846FFF7AAFFD5
:1021200007EE900A38EE668AF8EEE77A67EE887A6C
:1021300087EEA60ABFE777EE877AB4EEE78AF1EE7C
:1021400010FAB6DDB4F9D23107EE103A38EE678AEC
:10215000B8EEC77A78EEE78A27EE087A87EE280A83
:10216000A9E700BF0000000000007A44002070478B
:10217000002070477047000000F507502830704776
:1021800000487047F0E90C0800F50050D0F8E40E64
:1021900003681B681847000003480860302111706D
:1021A00008221A60704700BF78E30C0800F5005061
:1021B000D0F8E40E0368DB6C1847000000F500500F
:1021C000D0F8E40E03689B6C1847000000F500533C
:1021D00000F5A740D3F8E43E6C301B1A5842584132
:1021E0007047000010B500F500500C46D0F8E40E22
:1021F0000368DB6D984707EE900A9FED057AF8EECD
:10220000677A012067EE877AC4ED007A10BD00BFBF
:102210000AD7233C10B500F500500C46D0F8E40E68
:1022200003689B6D984707EE900A9FED057AF8EEDC
:10223000E77A012067EE877AC4ED007A10BD00BF0F
:102240000AD7233C10B500F500500C46D0F8E40E38
:1022500003681B6E9847DFED047A20EE270A012001
:1022600084ED000A10BD00BF0AD7233C5BF0F0BD2F
:1022700010F034BF5FF0C4BC5BF096B94AF09EB971
:1022800023F062BB4DF066BC16F01EBD58F0D2BE06
:1022900057F04CB90FF018BA0FF04CBE06F0DABA8E
:1022A00010F0B2BE05F0A4BA05F008B804F02EBFD5
:1022B0005DF04ABB0EF0D0B8FFF7EABD0FF038BBB7
:1022C0000FF090BD03F09CB80FF0C2BA0FF040BA07
:1022D00059F0AAB91EF038BA05F0A2BE02F05EBCF1
:1022E0000FF09EBD06F06EBA03F0F8BF06F0C2BB59
:1022F00004F09EBF05F03CBF0FF07AB9FFF7A8BD10
:1023000023F0BEBD05F064BC09F0A4BB09F0BCBA63
:1023100009F058BA37B500F500530446D3F8E40E77
:1023200003685B6A0D46984760B1DFED070A00233A
:1023300004F5B1400093B0EE600A1A462946183001
